:040000008A153E2CF3
:10000800FF00030E83018316C7000A08C6008A0191
:1000180070088312A0008C1C8D288C10A90A861CDD
:100028001828831645171A28831645138312051CAA
:100038002028831620142228831620108312051ED8
:1000480028288316A0142A288316A0108312061CB9
:10005800302883162015322883162011451F892839
:10006800033083122902031C882807183D2803142B
:100078003E280310031C4328831645104528831681
:100088004514831287184A2803144B280310031CAD
:1000980050288316C51052288316C51483120719D1
:1000A8005728031458280310031C5D28831645118C
:1000B8005F28831645158312871964280314652859
:1000C8000310031C6A288316C5116C288316C515EE
:1000D8008312071A7128031472280310031C772847
:1000E800831645127928831645168312871A7E28A7
:1000F80003147F280310031C84288316C51286283E
:100108008316C5168312A9018D288312A9018316A7
:10011800C51383120C1CB0280C100B308F00DC3078
:100128008E006400EC0AE20A6C08023A031DB0284B
:10013800EC01E40AEB0A64083B3C0318B028E4012C
:10014800E80A68083B3C0318B028E801E90A69088E
:10015800173C0318B028E9012008F0008316460868
:0C0168008A00470E8300FF0E7F0E090086
:04017400000008007F
:10017800083083120313FC002330FD00FD0BC22856
:06018800FC0BC228080078
:10018E00103083120313FD00FD0BCB280000080076
:10019E00831603139818D5280000CF285E08831203
:0401AE0099000800AC
:1001B20083160313DB1BE02883128613E2288312C3
:1001C200861783165B1BE82883120613EA2883121C
:1001D20006178316DB1AF02883128612F22883127E
:1001E200861683165B1AF82883120612FA288312DF
:1001F20006166F18FE280615FF2806118615BA2066
:1002020086118316DB190829831286130A298312A1
:10021200861783165B19102983120613122983127B
:1002220006178316DB181829831286121A298312DD
:10023200861683165B18202983120612222983123E
:1002420006166F1826290615272906118615BA20C3
:0E02520086116F1C2E29BC202F29C720080002
:1002600083160313DD015B0884000008DC005C08D2
:10027000003A031946295C08DE00CF208316DD0A08
:0E0280005D085B0784000008DC0037290800D9
:10028E0083160313451C5029C5185029303083128C
:10029E00AB00831645185829C51C582931308312D6
:1002AE00AB008316451C6029C51C602932308312B1
:1002BE00AB008316C51F6A2983126A08013A031D13
:1002CE006A293330AB008316451D7229C519722970
:1002DE0030308312A300831645197A29C51D7A2959
:1002EE0031308312A3008316451D8229C51D822934
:1002FE0032308312A3008316C51F8C2983126A081D
:10030E00023A031D8C293330A3008316451E94290F
:10031E00C51A942930308312A4008316451A9C29DD
:10032E00C51E9C2931308312A4008316451EA429B4
:10033E00C51EA42932308312A4008316C51FAE2910
:10034E0083126A08033A031DAE293330A4008312C8
:10035E006608003A031DB6293030AA00BF29660888
:10036E00013A031DBD293230AA00BF293130AA003F
:10037E006508003A031DC6293030A200CF29650852
:10038E00013A031DCD293230A200CF293130A2000F
:10039E006708003A031DD6293030A700DF29670809
:1003AE00013A031DDD293230A700DF293130A700C5
:1003BE008316201CE62930308312A800E929831207
:1003CE003130A8008316A01CF02930308312A10012
:1003DE00F32983123130A1008316201DFA29303003
:1003EE008312A600FD2983123130A6008316451F05
:1003FE00042A30308312A500072A83123130A5005B
:02040E000800E4
:10041000831203132B08AD002A08BA002808BB007A
:100420002308BD002208CA002108CB002408CD0003
:0E0430002708DA002608DB002508DC0008009B
:10043E002C3083160313DB0030210A30DE00CF2070
:0A044E000D308316DE00CF200800F9
:100458003E2A803083160313D800512AC030D800B2
:10046800512A9430D800512AD430D800512A8030EB
:10047800D800512A831603135808013A03192D2A64
:100488005808023A0319322A5808033A0319352A38
:100498005808043A0319382A3B2A5903F000580827
:1004A800F0077008D80083126F1470088316DB00F9
:1004B800D9206F1083165A08DB00D9206F14080062
:1004C800831203136F1083165808DB00D9206F14AA
:0204D80008001A
:1004DA0083120313F8010830FC00700DF80D74083C
:1004EA00F80203187A2AF8070310F00DFC0B722A97
:0204FA000800F8
:1004FC00831603135808F1005908F2008312E40123
:10050C0080307206F00080307002031D8F2A640860
:0A051C007102031C922A862A0800CF
:0E052600831203136E088A006D08820008001D
:1005340083160313861106110612861206138613F8
:100544008312861106118613061386120612BC2026
:10055400BC20BC20861606168615BA208611BC203F
:100564008615BA208611BC208615BA208611BC20B7
:1005740006128615BA208611BC208615BA2086116B
:10058400861286178615BA208611BC208613061695
:100594008615BA20861106128615BA208611BC204B
:1005A4008615BA20861106168615BA208611BC2037
:1005B40006128615BA2086118617061786160616A1
:0C05C4008615BA208611BC206F140800B8
:1005D000831603134E08D8005008D9005030DA00B3
:1005E0002C2272308316D80064226F308316D80014
:1005F000642263308316D800642265308316D800E5
:10060000642273308316D800642273308316D800B6
:10061000642261308316D80064226E308316D800BD
:10062000642264308316D80064226F308316D800A9
:040630006422080038
:10063400831603134E08D8005008D9004330DA005B
:100644002C2278308316D80064222E308316D800EA
:10065400642220308316D800642243308316D800E5
:10066400642272308316D800642269308316D8005D
:10067400642273308316D800642274308316D80041
:10068400642269308316D800642261308316D8004E
:1006940064226E308316D80064226F308316D8002B
:0406A40064220800C4
:1006A8008316031320186F2B83126308003A031D67
:1006B8006F2B8316A01C6F2B201D6F2B013083120C
:1006C800E300851403308316D8000030D9007E2259
:1006D80085168316C5178316A018892B83126308FD
:1006E800003A031D892B8316201C892B201D892B7A
:1006F80001308312E300051503308316D80000305B
:10070800D9007E2285168316C51783162019A32BB8
:1007180083126308003A031DA32B8316201CA32B06
:10072800A01CA32B01308312E30085150330831628
:10073800D8000030D9007E2285168316C517831687
:10074800201CBA2BA01CBA2B201DBA2B8312851291
:1007580003308316D8000030D9007E228510051199
:1007680085118316C5138312EA01E3018316201C41
:10077800CA2BA018CA2B2019CA2B831285128510E0
:10078800051185118316C5138312EA0183162018F3
:10079800DA2BA018DA2B2019DA2B8312851685108C
:0E07A800051185118316C5178312EA0108009A
:1007B600831603134E08D8005008D9004330DA00D8
:1007C6002C2278308316D80064222E308316D80067
:1007D600642220308316D800642248308316D8005D
:1007E600642265308316D80064226E308316D800E2
:1007F600642272308316D800642269308316D800CA
:10080600642271308316D800642275308316D800AE
:0C081600642265308316D80064220800BC
:100822000A3083120313F4006908F0006D22700885
:100832008316D2000A30F40083126908F0006D2298
:100842007808F00070088316D3000A30F40083128F
:100852006808F0006D2270088316D4000A30F40094
:1008620083126808F0006D227808F0007008831681
:10087200D5000A30F40083126408F0006D2270087B
:100882008316D6000A30F40083126408F0006D2249
:100892007808F00070088316D7004E08D800500878
:1008A200D90030305207DA002C2230308316530739
:1008B200D80064223A308316D8006422303083167E
:1008C2005407D8006422303083165507D8006422BA
:1008D2003A308316D8006422303083165607D80087
:0E08E2006422303083165707D80064220800C5
:1008F000831603134E08D8005008D9005330DA008D
:100900002C2265308316D80064226E308316D800FE
:10091000642273308316D80064226F308316D800A7
:10092000642272308316D800642265308316D800A2
:10093000642273308316D80064222D308316D800C9
:1009400064224D308316D800642261308316D800AB
:1009500064226E308316D800642275308316D80066
:10096000642261308316D80064226C308316D8006C
:0409700064220800F5
:10097400831603134E08D8005008D9004330DA0018
:100984002C2278308316D80064222E308316D800A7
:10099400642220308316D800642256308316D8008F
:1009A400642261308316D80064226C308316D80028
:1009B400642264308316D800642265308316D8001C
:1009C400642272308316D800642269308316D800FA
:0409D4006422080091
:1009D800831603134E08D8005008D9005430DA00A3
:1009E8002C2265308316D80064226D308316D80017
:1009F800642270308316D80064226F308316D800C2
:100A080064223A308316D800642220308316D80036
:040A1800642208004C
:100A1C00662D0A30831203136802031C192D8316EA
:100A2C004518192D272D013083126902031C262D20
:100A3C000A306802031C262D8316C51C262D272D73
:100A4C002B2D01308312E6002D2D8312E601742D1F
:100A5C0083120A306802031C372D83164519372D73
:100A6C00412D323083126802031C402D8316C51DA4
:100A7C00402D412D452D01308312E500472D831269
:100A8C00E501742D83120A306802031C512D831664
:100A9C00451A512D5F2D013083126902031C5E2D06
:100AAC000A306802031C5E2D8316C51E5E2D5F2D59
:100ABC00632D01308312E700652D8312E701742D3D
:100ACC00831603134E08013A03190F2D4E08023AF0
:0E0ADC0003192E2D4E08033A0319482D080069
:100AEA00472108226208033C03187D2D1F22E201D8
:020AFA000800F2
:100AFC008312031385128316C513831285100511F7
:100B0C0085119A2201308316DB00D9200C30831614
:100B1C00DB00D9208316451B2C2E83128718982DA9
:100B2C000314992D03100030031801308316C800EC
:100B3C0083120718A32D0314A42D031000300318DF
:100B4C0001308316C90083128719AE2D0314AF2D03
:100B5C0003100030031801308316CA0083120719E2
:100B6C00B92D0314BA2D031000300318013083166D
:100B7C00CB008312871AC42D0314C52D031000302B
:100B8C00031801308316CC008312071ACF2D0314DF
:100B9C00D02D03100030031801308316CD00013026
:100BAC00CE000030CF000230D0000030D1007824CD
:100BBC0002308316D8000230D9005630DA002C22CD
:100BCC003D308316D8006422303083164807D80095
:100BDC006422303083164907D800642220308316F3
:100BEC00D800642243308316D80064223D3083162B
:100BFC00D8006422303083164A07D8006422303083
:100C0C0083164B07D800642220308316D800642248
:100C1C0048308316D80064223D308316D8006422F5
:100C2C00303083164C07D8006422303083164D07C1
:100C3C00D800642220308316D800642254238312F7
:100C4C000313E601E501E7017525902D01308316AC
:100C5C00DB00D92085128510051185118316C5136B
:060C6C008312EA010800FA
:100C7200831603134808D8004A08D9004630DA0020
:100C82002C2261308316D80064226C308316D8007F
:100C9200642268308316D800642261308316D8003B
:040CA20064220800C0
:100CA600831203136608013A03195E2E6608023A98
:100CB60003195E2E672E02308316D8000930D9003C
:100CC6005630DA002C226F2E02308316D8000930F7
:100CD600D9003030DA002C226508013A0319782E43
:100CE6006508023A0319782E812E02308316D80041
:100CF6000C30D9004330DA002C22892E02308316BC
:100D0600D8000C30D9003030DA002C226708013ABE
:100D16000319922E6708023A0319922E9B2E02306F
:100D26008316D8000F30D9004830DA002C22A32EC3
:100D360002308316D8000F30D9003030DA002C226A
:020D46000800A3
:100D4800C12E831603134518AE2EC518AE2E0230D9
:100D58008312E600CF2E83164519B72EC519B72E74
:100D680002308312E500CF2E8316451AC02EC51A0D
:100D7800C02E02308312E700CF2E831603134808D3
:100D8800013A0319A52E4808023A0319AF2E48085C
:080D9800033A0319B82E08000C
:100DA00083160313201CE22E83126608003A031DEB
:100DB000E22E83164518E22EC51CE22E0130831266
:100DC000EA00062F8316A01CF32E83126508003A52
:100DD000031DF32E83164519F32EC51DF32E023085
:100DE0008312EA00062F8316201D042F8312670842
:100DF000003A031D042F8316451A042FC51E042F25
:0E0E000003308312EA00062F8312EA01080075
:100E0E008316031398169030831298008316871753
:100E1E00071383128C1E162F1A08F000102F0800CD
:100E2E00831603134808D8004A08D9005330DA0055
:100E3E002C2245308316D80064224A308316D800FF
:100E4E00642241308316D800642220308316D800E5
:100E5E00642242308316D800642245308316D800AF
:100E6E0064224D308316D80064222D308316D800AC
:100E7E00642256308316D800642249308316D80077
:100E8E0064224E308316D800642244308316D80074
:0C0E9E0064224F308316D8006422080044
:100EAA00831603134808D8004A08D9004130DA00EB
:100EBA002C2251308316D800642255308316D8006C
:100ECA00642241308316D800642242308316D80047
:100EDA0064224F308316D800642258308316D80013
:040EEA006422080076
:100EEE000630831603139F008E308100313083123B
:100EFE0090000C100B308F00DC308E0083160C141B
:100F0E00C0308B004D3083129200FA30831692005F
:100F1E008C1411308500BF3087001130831285008C
:100F2E0083164517C5138312E601E501E701080094
:100F3E0093228A110A128000840AED0A0319EE0A1E
:080F4E00F003031D9F2F0800B2
:101000002F2C83160313C51B64298A119A228A1573
:1010100001308316DB008A11D9208A150C30831623
:10102000DB008A11D9208A1501308316CE000030EA
:10103000CF000430D0000030D1008A11E8228A1598
:1010400002308316CE000030CF000430D0000030D4
:10105000D1008A11BA248A1501308316D8000030D5
:10106000D9008A117E228A15851403308316D80090
:101070000030D9008A117E228A1585168316C5177D
:101080000130DB008A11D9208A1501308316CE0089
:101090000030CF000430D0000030D1008A11BA24D3
:1010A0008A1502308316CE000030CF000130D00008
:1010B0000030D1008A11EC248A15E401E801E9012D
:1010C0008316C51F64290230CE000030CF000930DE
:1010D000D0000030D1008A1111248A1583164518DA
:1010E000D5280A30F40083126408F0008A116D22BA
:1010F0008A15303070078316AD000A30F400831271
:101100006408F0008A116D228A157808F0003030EA
:1011100070078316AE000A30F40083126808F000EE
:101120008A116D228A15303070078316AF000A309D
:10113000F40083126808F0008A116D228A1578087D
:10114000F000303070078316B0000A30F4008312CC
:101150006908F0008A116D228A15303070078316F5
:10116000B1000A30F40083126908F0008A116D2280
:101170008A157808F0003030F00770088316B20046
:1011800031088312AE007008AF0083162F08831257
:10119000B000831630088312B10083162D08831225
:1011A000B20083162E088312B30083120A30F400B3
:1011B0006408F0008A116D228A153030700783169A
:1011C000B3000A30F40083126408F0008A116D2223
:1011D0008A157808F000303070078316B4000A30A2
:1011E000F40083126808F0008A116D228A153030ED
:1011F00070078316B5000A30F40083126808F00007
:101200008A116D228A157808F00030307007831635
:10121000B6000A30F40083126908F0008A116D22CA
:101220008A15303070078316B7000A30F400831235
:101230006908F0008A116D228A157808F0003030B4
:10124000F00770088316B80037088312B4007008DE
:10125000B500831635088312B6008316360883124C
:10126000B700831633088312B8008316340883123C
:10127000B90001308316CE008A110E258A158A1115
:1012800075258A158316C51C4B2983126608013AF9
:1012900003194B2963298312851203308316D80062
:1012A0000030D9008A117E228A1585108316C51355
:1012B0008312E401E801E901EA0101308316DB0051
:1012C0008A11D9208A1560283D2C8316C51BC92A8E
:1012D0008A119A228A1501308316DB008A11D920DF
:1012E0008A150C308316DB008A11D9208A1501304B
:1012F0008316CE000030CF000430D0000030D10083
:101300008A11E8228A1502308316CE000030CF0001
:101310000330D0000030D1008A111A238A15013021
:101320008316D8000030D9008A117E228A1505154F
:1013300003308316D8000030D9008A117E228A1526
:1013400085168316C5178312E401E801E90101300F
:101350008316DB008A11D9208A1501308316CE004E
:101360000030CF000330D0000030D1008A111A23A2
:101370008A1502308316CE000030CF000130D00035
:101380000030D1008A11EC248A158316C51FC92AA2
:101390000230CE000030CF000930D0000030D10044
:1013A0008A1111248A15831645193A2A0A30F40045
:1013B00083126408F0008A116D228A15303070079C
:1013C0008316B9000A30F40083126408F0008A1111
:1013D0006D228A157808F000303070078316BA0045
:1013E0000A30F40083126808F0008A116D228A1511
:1013F000303070078316BB000A30F400831268088F
:10140000F0008A116D228A157808F00030307007DC
:101410008316BC000A30F40083126908F0008A11B8
:101420006D228A15303070078316BD000A30F40033
:1014300083126908F0008A116D228A157808F0007D
:101440003030F00770088316BE003D088312BE00DE
:101450007008BF0083163B088312C00083163C0847
:101460008312C100831639088312C20083163A081A
:101470008312C30083120A30F4006408F0008A115A
:101480006D228A15303070078316BF000A30F400D1
:1014900083126408F0008A116D228A157808F00022
:1014A000303070078316C0000A30F40083126808D9
:1014B000F0008A116D228A15303070078316C10042
:1014C0000A30F40083126808F0008A116D228A1530
:1014D0007808F000303070078316C2000A30F4003C
:1014E00083126908F0008A116D228A153030700766
:1014F0008316C3000A30F40083126908F0008A11D1
:101500006D228A157808F0003030F00770088316D5
:10151000C40043088312C4007008C5008316410844
:101520008312C600831642088312C70083163F0841
:101530008312C800831640088312C9000230831644
:10154000CE008A110E258A158A1175258A158316F3
:10155000C51DB02A83126508013A0319B02AC82AAA
:101560008312851203308316D8000030D9008A1107
:101570007E228A1505118316C5138312E401E80142
:10158000E901EA0101308316DB008A11D9208A15AE
:10159000C5293D2C8316C51B2E2C8A119A228A152B
:1015A00001308316DB008A11D9208A150C3083168E
:1015B000DB008A11D9208A1501308316CE00003055
:1015C000CF000430D0000030D1008A11E8228A1503
:1015D00002308316CE000030CF000330D000003040
:1015E000D1008A11DB238A1501308316D800003020
:1015F000D9008A117E228A15851503308316D800FA
:101600000030D9008A117E228A1585168316C517E7
:101610008312E401E801E90101308316DB008A113D
:10162000D9208A1501308316CE000030CF00033058
:10163000D0000030D1008A11DB238A1502308316D6
:10164000CE000030CF000130D0000030D1008A1130
:10165000EC248A158316C51F2E2C0230CE000030D4
:10166000CF000930D0000030D1008A1111248A1532
:101670008316451A9F2B0A30F40083126408F00089
:101680008A116D228A15303070078316A1000A3046
:10169000F40083126408F0008A116D228A1578081C
:1016A000F000303070078316A2000A30F400831275
:1016B0006808F0008A116D228A1530307007831691
:1016C000A3000A30F40083126808F0008A116D222A
:1016D0008A157808F000303070078316A4000A30AD
:1016E000F40083126908F0008A116D228A153030E7
:1016F00070078316A5000A30F40083126908F00011
:101700008A116D228A157808F0003030F0077008D1
:101710008316A60025088312CE007008CF0083161A
:1017200023088312D000831624088312D100831665
:1017300021088312D200831622088312D300831259
:101740000A30F4006408F0008A116D228A153030E6
:1017500070078316A7000A30F40083126408F000B3
:101760008A116D228A157808F000303070078316D0
:10177000A8000A30F40083126808F0008A116D2274
:101780008A15303070078316A9000A30F4008312DE
:101790006808F0008A116D228A157808F000303050
:1017A00070078316AA000A30F40083126908F0005B
:1017B0008A116D228A15303070078316AB000A300B
:1017C000F40083126908F0008A116D228A157808E6
:1017D000F0003030F00770088316AC002B0883123D
:1017E000D4007008D500831629088312D60083160A
:1017F0002A088312D700831627088312D80083167D
:1018000028088312D90003308316CE008A110E25D2
:101810008A158A1175258A158316C51E152C831203
:101820006708013A0319152C2D2C831285120330F9
:101830008316D8000030D9008A117E228A158511BE
:101840008316C5138312E401E801E901EA010130BE
:101850008316DB008A11D9208A152A2B3D2C83128E
:1018600003136A08013A031901286A08023A0319A6
:0C18700065296A08033A0319CA2A080017
:10187C00DE248A1177278A1564008A119A228A1528
:10188C0001308316DB008A11D9208A150C3083169F
:10189C00DB008A11D9208A1501308316C80000306C
:1018AC00C9000530CA000030CB008A1155278A15B3
:1018BC0002308316C8000030C9000230CA00003064
:1018CC00CB008A1117278A15E401E801E9010230DF
:1018DC008316D8000030D9008A117E228A15013077
:1018EC008316DB008A11D9208A15193083169900CA
:1018FC0018158A1107278A158230FC00DD30FD008F
:10190C00FD0B862CFC0B862C000000000313013011
:10191C008316C8000030C9000130CA000030CB006B
:10192C008A1155278A1502308316C8000030C90069
:10193C000230CA000030CB008A1139268A150130DA
:10194C008316CE000030CF000930D0000030D1001B
:10195C008A1111248A1501308316C8008A11A42615
:10196C008A15023083160313C8008A11A4268A151F
:10197C00033083160313C8008A11A4268A158A1112
:10198C0053268A158A1175258A158316451FD32C63
:10199C008A11D0268A150020D62C8A117E258A150C
:0419AC008C2CD72C7C
:1019BC00213084004C3083120313F000AB30ED0067
:0C19CC000730EE008A119F278A150800E2
:020F5600303435
:020F5800303433
:020F5A00303431
:020F5C0030342F
:020F5E0030342D
:020F600030342B
:020F6200303429
:020F6400303427
:020F6600003455
:020F6800303423
:020F6A00303421
:100F6C003134303430343034303430343034303454
:100F7C003034303430343034303430343034303445
:100F8C003234303430343034303430343034303433
:100F9C003034303430343034303430343034303425
:100FAC003334303430343034303430343034303412
:100FBC003034303430343034303430343034303405
:0C0FCC0030343034303430340A34003417
:020FD8000034E3
:020FDA000034E1
:020FDC000034DF
:020FDE000034DD
:020FE0000034DB
:020FE2000034D9
:020FE4000034D7
:020FE6000034D5
:020FE8000034D3
:020FEA000034D1
:020FEC000034CF
:02400E007A3BFB
:00000001FF
