:040000008A15202C11
:10000800FF00030E83018316C8000A08C7008A018F
:1000180070088312A0008C1C76288C10E60A861CB7
:1000280017286E1718286E13051C1D2883164614EA
:100038001F28831646108312051E25288316C6140A
:1000480027288316C6108312061C2D2883164615EA
:100058002F288316461183126E1F742803306602F8
:10006800031C732807183A2803143B280310031CA1
:100078003F286E1040286E1487184428031445281A
:100088000310031C4928EE104A28EE1407194E28BD
:1000980003144F280310031C53286E1154286E159F
:1000A80087195828031459280310031C5D28EE11DA
:1000B8005E28EE15071A6228031463280310031C30
:1000C80067286E1268286E16871A6C2803146D2824
:1000D8000310031C7128EE127228EE16E60176282A
:1000E800E601EE130C1C9E280C100B308F00DC3040
:1000F8008E006400E40AEB0A6408023A031D9E2895
:10010800E401EC0AE50A6C083B3C03189E28EC0164
:10011800E80AED0A6D083B3C03189328ED016808CE
:100128003B3C03189E28E801E70A6708173C0318B8
:100138009E28E7012008F000831647088A00480E29
:080148008300FF0E7F0E090089
:0401500000000800A3
:10015400083083120313FC002330FD00FD0BB0288C
:06016400FC0BB0280800AE
:10016A00103083120313FD00FD0BB92800000800AC
:10017A00831603139818C3280000BD285F0883124A
:04018A0099000800D0
:10018E0083160313DC1BCE2883128613D02883120A
:10019E00861783165C1BD62883120613D828831263
:1001AE0006178316DC1ADE2883128612E0288312C5
:1001BE00861683165C1AE62883120612E828831226
:1001CE0006166F18EC280615ED2806118615A820C0
:1001DE0086118316DC19F62883128613F8288312EB
:1001EE00861783165C19FE288312061300298312C4
:1001FE0006178316DC180629831286120829831225
:10020E00861683165C180E29831206121029831285
:10021E0006166F1814290615152906118615A8201D
:0E022E0086116F1C1C29AA201D29B52008006E
:10023C0083160313DE015C0884000008DD005D08F2
:10024C00003A031934295D08DF00BD208316DE0A4D
:0E025C005E085C0784000008DD00252908000C
:10026A00831203136E1C3D29EE183D293030DE003F
:10027A006E184329EE1C43293130DE006E1C4929D1
:10028A00EE1C49293230DE00EE1F51296A08013A74
:10029A00031D51293330DE006E1D5729EE195729E7
:1002AA003030DF006E195D29EE1D5D293130DF0027
:1002BA006E1D6329EE1D63293230DF00EE1F6B29A4
:1002CA006A08023A031D6B293330DF006E1E71295A
:1002DA00EE1A71293030A4006E1A7729EE1E77299A
:1002EA003130A4006E1E7D29EE1E7D293230A40015
:1002FA00EE1F85296A08033A031D85293330A400B5
:10030A002508003A031D8C293030E100952925087B
:10031A00013A031D93293230E10095293130E10079
:10032A002608003A031D9C293030E000A52926083A
:10033A00013A031DA3293230E000A5293130E0003B
:10034A006908003A031DAC293030A100B5296908B3
:10035A00013A031DB3293230A100B5293130A10079
:10036A008316461CBC2930308312E200BF2983124F
:10037A003130E2008316C61CC62930308312A3002E
:10038A00C92983123130A3008316461DD029303083
:10039A008312A200D32983123130A2006E1FD829FA
:0C03AA003030A700DA293130A70008002D
:1003B600831203135E08A9006108B6006208B7003D
:1003C6005F08B9006008C6002308C7002408C900F2
:0E03D6002108D6002208D7002708D80008000A
:1003E400283083160313DC001E210A30DF00BD20F1
:0A03F4000D308316DF00BD20080065
:1003FE00831603135908F1005A08F2008312EC0118
:10040E0080307206F00080307002031D102A6C08D6
:0A041E007102031C132A072A0800CC
:10042800831203136F1083165908DC00C7206F145A
:020438000800BA
:10043A0083120313F8010830FC00700DF80D7408DC
:10044A00F80203182A2AF8070310F00DFC0B222AD7
:02045A00080098
:10045C00402A803083160313D900532AC030D900A8
:10046C00532A9430D900532AD430D900532A8030DF
:10047C00D900532A831603135908013A03192F2A5A
:10048C005908023A0319342A5908033A0319372A2E
:10049C005908043A03193A2A3D2A5A03F00059081C
:1004AC00F0077008D90083126F1470088316DC00F3
:1004BC00C7206F1083165B08DC00C7206F14080080
:0E04CC008316031321088A002008820008000E
:1004DA008316031386110611061286120613861353
:1004EA008312861106118613061386120612AA2093
:1004FA00AA20AA20861606168615A8208611AA20E2
:10050A008615A8208611AA208615A8208611AA2059
:10051A0006128615A8208611AA208615A8208611FB
:10052A00861286178615A8208611AA208613061613
:10053A008615A820861106128615A8208611AA20DB
:10054A008615A820861106168615A8208611AA20C7
:10055A0006128615A820861186170617861606160D
:0C056A008615A8208611AA206F14080036
:10057600831603134F08D9005108DA005030DB0008
:100586002E2272308316D90014226F308316D900BA
:10059600142263308316D900142265308316D900DD
:1005A600142273308316D900142273308316D900AF
:1005B600142261308316D90014226E308316D900B6
:1005C600142264308316D90014226F308316D900A2
:0405D60014220800E3
:1005DA00831603134F08D9005108DA004330DB00B1
:1005EA002E2278308316D90014222E308316D90091
:1005FA00142220308316D900142243308316D900DE
:10060A00142272308316D900142269308316D90055
:10061A00142273308316D900142274308316D90039
:10062A00142269308316D900142261308316D90046
:10063A0014226E308316D90014226F308316D90023
:04064A00142208006E
:10064E00831603134618412B83126308003A031DC9
:10065E00412B8316C61C412B461D412B01308312A4
:10066E00E300851403308316D9000030DA00FF2131
:10067E008516EE178316C6185A2B83126308003A96
:10068E00031D5A2B8316461C5A2B461D5A2B01301E
:10069E008312E300051503308316D9000030DA000B
:1006AE00FF218516EE1783164619732B83126308E6
:1006BE00003A031D732B8316461C732BC61C732B1B
:1006CE0001308312E300851503308316D900003004
:1006DE00DA00FF218516EE178316461C882BC61CE2
:1006EE00882B461D882B8312851203308316D90062
:1006FE000030DA00FF21851005118511EE13EA0195
:10070E00E3018316461C962BC618962B4619962B7C
:10071E0083128512851005118511EE13EA018316D9
:10072E004618A42BC618A42B4619A42B8312851683
:0C073E00851005118511EE17EA01080076
:10074A00831603134F08D9005108DA004330DB003F
:10075A002E2278308316D90014222E308316D9001F
:10076A00142220308316D900142248308316D90067
:10077A00142265308316D90014226E308316D900EC
:10078A00142272308316D900142269308316D900D4
:10079A00142271308316D900142275308316D900B9
:0C07AA00142265308316D90014220800C8
:1007B600831603134F08D9005108DA004330DB00D3
:1007C6002E2278308316D90014222E308316D900B3
:1007D600142220308316D900142256308316D900ED
:1007E600142261308316D90014226C308316D90086
:1007F600142264308316D900142265308316D9007A
:10080600142272308316D900142269308316D90057
:0408160014220800A0
:10081A00831603134F08D9005108DA005330DB005E
:10082A002E2265308316D90014226E308316D90021
:10083A00142273308316D90014226F308316D9001C
:10084A00142272308316D900142265308316D90017
:10085A00142273308316D90014222D308316D9003E
:10086A0014224D308316D900142261308316D90020
:10087A0014226E308316D900142275308316D900DB
:10088A00142261308316D90014226C308316D900E1
:04089A00142208001C
:10089E00831603134F08D9005108DA005430DB00D9
:1008AE002E2265308316D90014226D308316D9009E
:1008BE00142270308316D90014226F308316D9009B
:1008CE0014223A308316D900142220308316D90010
:0408DE0014220800D8
:1008E2000A3083120313F4006708F0001D22700817
:1008F2008316D3000A30F40083126708F0001D2229
:100902007808F00070088316D4000A30F4008312CD
:100912006808F0001D2270088316D5000A30F40022
:1009220083126808F0001D227808F0007008831610
:10093200D6000A30F40083126C08F0001D22700801
:100942008316D7000A30F40083126C08F0001D22CF
:100952007808F00070088316D8004F08D9005108B3
:10096200DA0030305307DB002E2230308316540772
:10097200D90014223A308316D9001422303083165B
:100982005507D9001422303083165607D900142295
:100992003A308316D9001422303083165707D90013
:0E09A2001422303083165807D90014220800A2
:1009B000242D0A30831203136802031CE22C6E18E4
:1009C000E22CEE2C01306702031CED2C0A30680289
:1009D000031CED2CEE1CED2CEE2CF22C0130A500AE
:1009E000ED01F32CA501322D83120A306802031C9D
:1009F000FC2C6E19FC2C042D32306802031C032DD4
:100A0000EE1D032D042D082D0130A600ED01092D4A
:100A1000A601322D83120A306802031C122D6E1AB1
:100A2000122D1E2D01306702031C1D2D0A30680295
:100A3000031C1D2DEE1E1D2D1E2D222D0130E90043
:100A4000ED01232DE901322D831603134F08013ADE
:100A50000319D92C4F08023A0319F42C4F08033A12
:060A600003190A2D080035
:100A66003521DB216B08033C03183B2DF221EB01FA
:020A7600080076
:100A7800831203138512EE138510051185116D225B
:100A880001308316DC00C7200C308316DC00C72039
:100A98006E1BE62D8718522D0314532D03100030BA
:100AA800031801308316C900831207185D2D03143B
:100AB8005E2D03100030031801308316CA0083121C
:100AC8008719682D0314692D0310003003180130AD
:100AD8008316CB0083120719732D0314742D03108A
:100AE8000030031801308316CC008312871A7E2D3C
:100AF80003147F2D03100030031801308316CD0036
:100B08008312071A892D03148A2D03100030031845
:100B180001308316CE000130CF000030D000023003
:100B2800D1000030D2000D2402308316D9000230E3
:100B3800DA005630DB002E223D308316D90014220D
:100B4800303083164907D9001422303083164A07FB
:100B5800D900142220308316D9001422433083167A
:100B6800D90014223D308316D90014223030831660
:100B78004B07D9001422303083164C07D9001422B1
:100B880020308316D900142248308316D900142245
:100B98003D308316D9001422303083164D07D90012
:100BA8001422303083164E07D900142220308316C1
:100BB800D9001422272383120313A501A601E901F2
:100BC80033254C2D01308316DC00C7208512851093
:0A0BD80005118511EE13EA01080073
:100BE20083160313461C012E83122508003A031DA7
:100BF200012E6E18012EEE1C012E0130EA00212E6C
:100C02008316C61C102E83122608003A031D102ECE
:100C12006E19102EEE1D102E0230EA00212E8316C0
:100C2200461D1F2E83126908003A031D1F2E6E1ADD
:100C32001F2EEE1E1F2E0330EA00212E8312EA0120
:020C42000800A8
:100C4400831203132508013A03192D2E2508023AAD
:100C540003192D2E362E02308316D9000930DA00FE
:100C64005630DB002E223E2E02308316D900093086
:100C7400DA003030DB002E222608013A0319472E11
:100C84002608023A0319472E502E02308316D90043
:100C94000C30DA004330DB002E22582E023083164B
:100CA400D9000C30DA003030DB002E226908013A1A
:100CB4000319612E6908023A0319612E6A2E023063
:100CC4008316D9000F30DA004830DB002E22722E52
:100CD40002308316D9000F30DA003030DB002E22C8
:020CE400080006
:100CE6008D2E831203136E187C2EEE187C2E023086
:100CF600A5009B2E83126E19842EEE19842E0230C7
:100D0600A6009B2E83126E1A8C2EEE1A8C2E0230A3
:100D1600E9009B2E831603134908013A0319742E22
:100D26004908023A03197D2E4908033A0319852E0C
:020D36000800B3
:100D3800831203136D081E3C0318B32E2508013ACD
:100D48000319AF2E2608013A0319AF2E6908013A94
:100D58000319AF2EB32EA501A601E901ED01080084
:100D6800831603134908D9004B08DA004130DB0029
:100D78002E2251308316D900142255308316D900FB
:100D8800142241308316D900142242308316D90028
:100D980014224F308316D900142258308316D900F4
:040DA8001422080009
:100DAC0083160313981690308312980083168717B6
:100DBC00071383128C1EE52E1A08F000DF2E080094
:100DCC00831603134908D9004B08DA005330DB00B3
:100DDC002E2245308316D90014224A308316D900AE
:100DEC00142241308316D900142220308316D900E6
:100DFC00142242308316D900142245308316D900B0
:100E0C0014224D308316D90014222D308316D900AC
:100E1C00142256308316D900142249308316D90077
:100E2C0014224E308316D900142244308316D90074
:0C0E3C0014224F308316D9001422080045
:100E4800831603134908D9004B08DA004630DB0043
:100E58002E2261308316D90014226C308316D900F3
:100E6800142268308316D900142261308316D90001
:040E78001422080038
:100E7C000730831603139C0006309F008E308100D0
:100E8C003130831290000C100B308F00DC308E0050
:100E9C0083160C14C0308B004D3083129200FA3044
:100EAC00831692008C1411308500BF3087001130EE
:100EBC00831285006E17EE13A501A601E901080047
:100ECC0066228A110A128000840AA00A0319A10A58
:080EDC00F003031D662F08005E
:100F8000213084004D3083120313F0007230831639
:0A0F9000A0000730A100662708004A
:10100000112C83120313EE1B5C298A116D228A15A1
:1010100001308316DC008A11C7208A150C30831634
:10102000DC008A11C7208A1501308316CF000030FA
:10103000D0000430D1000030D2008A11BB228A15C2
:1010400002308316CF000030D0000430D1000030D1
:10105000D2008A11DB238A1501308316D9000030B3
:10106000DA008A11FF218A15851403308316D9000E
:101070000030DA008A11FF218A158516EE1701303B
:101080008316DC008A11C7208A1501308316CF0031
:101090000030D0000430D1000030D2008A11DB23B0
:1010A0008A1502308316CF000030D0000130D10005
:1010B0000030D2008A114F248A15EC01E801E701C3
:1010C000EE1F5C2902308316CF000030D0000930BB
:1010D000D1000030D2008A1171248A156E18D328ED
:1010E0000A30F4006C08F0008A111D228A15303095
:1010F00070078316AE000A30F40083126C08F0000B
:101100008A111D228A157808F00030307007831686
:10111000AF000A30F40083126808F0008A111D2223
:101120008A15303070078316B0000A30F40083123D
:101130006808F0008A111D228A157808F000303006
:1011400070078316B1000A30F40083126708F000BC
:101150008A111D228A15303070078316B2000A30BA
:10116000F40083126708F0008A111D228A1578089E
:10117000F0003030F00770088316B3003208831295
:10118000AA007008AB00831630088312AC008316E7
:1011900031088312AD0083162E088312AE00831629
:1011A0002F088312AF000A30F4006C08F0008A1197
:1011B0001D228A15303070078316B4000A30F400FF
:1011C00083126C08F0008A111D228A157808F0003D
:1011D000303070078316B5000A30F40083126808B7
:1011E000F0008A111D228A15303070078316B60070
:1011F0000A30F40083126808F0008A111D228A1553
:101200007808F000303070078316B7000A30F40019
:1012100083126708F0008A111D228A15303070078A
:101220008316B8000A30F40083126708F0008A11B0
:101230001D228A157808F0003030F00770088316F8
:10124000B90038088312B0007008B1008316360860
:101250008312B200831637088312B3008316340852
:101260008312B400831635088312B500013083164B
:10127000CF008A11D8248A158A1133258A15EE1CCD
:1012800046292508013A031946295B2985120330AE
:101290008316D9000030DA008A11FF218A158510E3
:1012A000EE13EC01E801E701EA0101308316DC00EE
:1012B0008A11C7208A1560281F2CEE1BB62A8A11B6
:1012C0006D228A1501308316DC008A11C7208A1529
:1012D0000C308316DC008A11C7208A150130831672
:1012E000CF000030D0000430D1000030D2008A118D
:1012F000BB228A1502308316CF000030D0000330A5
:10130000D1000030D2008A11ED228A1501308316F7
:10131000D9000030DA008A11FF218A150515033043
:101320008316D9000030DA008A11FF218A1585164C
:10133000EE17EC01E801E70101308316DC008A11A9
:10134000C7208A1501308316CF000030D00003304B
:10135000D1000030D2008A11ED228A1502308316A6
:10136000CF000030D0000130D1000030D2008A110F
:101370004F248A15EE1FB62A02308316CF000030A4
:10138000D0000930D1000030D2008A1171248A15B2
:101390006E192D2A0A30F4006C08F0008A111D2203
:1013A0008A15303070078316BA000A30F4008312B1
:1013B0006C08F0008A111D228A157808F000303080
:1013C00070078316BB000A30F40083126808F0002F
:1013D0008A111D228A15303070078316BC000A302E
:1013E000F40083126808F0008A111D228A1578081B
:1013F000F000303070078316BD000A30F40083120D
:101400006708F0008A111D228A1530307007831694
:10141000BE000A30F40083126708F0008A111D2212
:101420008A157808F0003030F00770088316BF0086
:101430003E088312BA007008BB0083163C08831272
:10144000BC0083163D088312BD0083163A08831240
:10145000BE0083163B088312BF000A30F4006C08FC
:10146000F0008A111D228A15303070078316C000E3
:101470000A30F40083126C08F0008A111D228A15CC
:101480007808F000303070078316C1000A30F4008D
:1014900083126808F0008A111D228A153030700707
:1014A0008316C2000A30F40083126808F0008A1123
:1014B0001D228A157808F000303070078316C300AB
:1014C0000A30F40083126708F0008A111D228A1581
:1014D000303070078316C4000A30F40083126708A6
:1014E000F0008A111D228A157808F0003030F007CC
:1014F00070088316C50044088312C0007008C1003C
:10150000831642088312C200831643088312C30065
:10151000831640088312C400831641088312C50055
:1015200002308316CF008A11D8248A158A113325F8
:101530008A15EE1DA02A2608013A0319A02AB52A09
:10154000851203308316D9000030DA008A11FF219A
:101550008A150511EE13EC01E801E701EA010130FB
:101560008316DC008A11C7208A15BA291F2CEE1BAE
:10157000102C8A116D228A1501308316DC008A1125
:10158000C7208A150C308316DC008A11C7208A1503
:1015900001308316CF000030D0000430D10000307D
:1015A000D2008A11BB228A1502308316CF00003088
:1015B000D0000330D1000030D2008A11A5238A1553
:1015C00001308316D9000030DA008A11FF218A1514
:1015D000851503308316D9000030DA008A11FF2107
:1015E0008A158516EE17EC01E801E7010130831634
:1015F000DC008A11C7208A1501308316CF00003025
:10160000D0000330D1000030D2008A11A5238A1502
:1016100002308316CF000030D0000130D1000030FE
:10162000D2008A114F248A15EE1F102C0230831627
:10163000CF000030D0000930D1000030D2008A1134
:1016400071248A156E1A872B0A30F4006C08F0009A
:101650008A111D228A15303070078316A2000A30C5
:10166000F40083126C08F0008A111D228A15780894
:10167000F000303070078316A3000A30F4008312A4
:101680006808F0008A111D228A1530307007831611
:10169000A4000A30F40083126808F0008A111D22A9
:1016A0008A157808F000303070078316A5000A30DC
:1016B000F40083126708F0008A111D228A15303069
:1016C00070078316A6000A30F40083126708F00042
:1016D0008A111D228A157808F0003030F007700852
:1016E0008316A70026088312CA007008CB00831651
:1016F00024088312CC00831625088312CD0083169C
:1017000022088312CE00831623088312CF000A30EA
:10171000F4006C08F0008A111D228A153030700721
:101720008316A8000A30F40083126C08F0008A11B6
:101730001D228A157808F000303070078316A90042
:101740000A30F40083126808F0008A111D228A15FD
:10175000303070078316AA000A30F400831268083C
:10176000F0008A111D228A157808F00030307007C9
:101770008316AB000A30F40083126708F0008A1168
:101780001D228A15303070078316AC000A30F40031
:1017900083126708F0008A111D228A157808F0006C
:1017A0003030F00770088316AD002C088312D0008B
:1017B0007008D10083162A088312D20083162B08E2
:1017C0008312D300831628088312D40083162908B5
:1017D0008312D50003308316CF008A11D8248A15CE
:1017E0008A1133258A15EE1EFA2B6908013A03196E
:1017F000FA2B0F2C851203308316D9000030DA0043
:101800008A11FF218A158511EE13EC01E801E70129
:10181000EA0101308316DC008A11C7208A15142BD7
:101820001F2C831203136A08013A031901286A085E
:10183000023A03195D296A08033A0319B72A080016
:101840008A11C0278A158A113E278A1564008A11D9
:101850006D228A1501308316DC008A11C7208A1593
:101860000C308316DC008A11C7208A1501308316DC
:10187000C9000030CA000530CB000030CC008A110E
:10188000B4268A1502308316C9000030CA0002301F
:10189000CB000030CC008A11E6268A15EC01E80165
:1018A000E701ED0102308316D9000030DA008A1119
:1018B000FF218A1501308316DC008A11C7208A15A2
:1018C00019308316990018158A11D6268A15823088
:1018D000FC00DD30FD00FD0B6B2CFC0B6B2C0000C5
:1018E000000001308316C9000030CA000130CB006F
:1018F0000030CC008A11B4268A1502308316C90044
:101900000030CA000230CB000030CC008A112427FE
:101910008A1501308316CF000030D0000930D10085
:101920000030D2008A1171248A158A119C268A15EA
:1019300001308316C9008A1173268A150230831676
:101940000313C9008A1173268A1503308316031303
:10195000C9008A1173268A158A1122268A158A11CE
:1019600033258A156E1FB92C8A11F1258A1500209E
:0C197000BC2C8A113C258A15712CBD2C62
:020EE4003034A8
:020EE6003034A6
:020EE8003034A4
:020EEA003034A2
:020EEC000034D0
:020EEE000034CE
:020EF00030349C
:100EF20031343034303430343034303430343034CF
:100F020030343034303430343034303430343034BF
:100F120032343034303430343034303430343034AD
:100F2200303430343034303430343034303430349F
:100F3200333430343034303430343034303430348C
:100F4200303430343034303430343034303430347F
:0C0F520030343034303430340A34003491
:020F5E0030342D
:020F600030342B
:020F6200303429
:020F6400303427
:020F6600303425
:020F6800003453
:020F6A00003451
:020F6C0000344F
:020F6E0000344D
:020F700000344B
:020F7200003449
:020F7400003447
:020F7600003445
:020F7800003443
:020F7A00003441
:020F7C0000343F
:02400E004A2F37
:00000001FF
